:020000040800F2
:1000000070060020550200083D0300083503000873
:100010003903000811030008610300080000000014
:100020000000000000000000000000004503000880
:100030001503000800000000410300084903000800
:100040006F0200086F0200086F0200086F020008CC
:100050006F0200086F0200086F0200086F020008BC
:100060006F0200086F0200086F0200086F020008AC
:100070006F0200086F0200086F0200086F0200089C
:100080006F0200086F0200086F0200086F0200088C
:100090006F0200086F0200086F0200086F0200087C
:1000A0006F0200086F0200086F0200086F0200086C
:1000B0006F0200086F0200086F0200086F0200085C
:1000C0006F0200086F0200086F0200086F0200084C
:1000D0006F0200086F0200086F0200086F0200083C
:1000E0006F0200086F0200086F0200086F0200082C
:1000F0006F0200086F0200086F0200086F0200081C
:100100006F0200086F0200086F0200086F0200080B
:100110006F0200086F0200086F0200086F020008FB
:100120006F0200086F0200086F0200086F020008EB
:100130006F0200086F0200086F0200086F020008DB
:100140006F0200086F0200086F0200086F020008CB
:100150006F0200086F0200086F0200086F020008BB
:100160006F0200086F0200086F0200086F020008AB
:100170006F0200086F0200086F0200080000000014
:100180006F0200086F02000800F002F800F052F859
:1001900014A696E8000CB244B344DA4501D100F04D
:1001A00049F8BAE80F000FA696E83000A5EB040561
:1001B00004EB0607AAEB0704A7F101074FEA1515A0
:1001C0004FEA3414A4F10104AC4201D300F032F838
:1001D00013F0010F18BFFB1A43F0010300F001F800
:1001E000DBE718476002000080020000103A24BFDD
:1001F00078C878C1FAD8520724BF30C830C144BF8C
:1002000004680C6070470000704700000023002461
:1002100000250026103A28BF78C1FBD8520728BF16
:1002200030C148BF0B6070471FB500F0FEF81FBD1E
:1002300010B510BD00F031F81146FFF7F5FF00F0E2
:1002400091F800F04FF803B4FFF7F2FF03BC00F0A1
:1002500057F800000948804709480047FEE7FEE7D5
:10026000FEE7FEE7FEE7FEE7FEE7FEE7FEE7FEE766
:1002700004480549054A064B704700004D03000835
:100280008901000870000020700600207002002024
:1002900070020020704770477047754600F02CF8D8
:1002A000AE4605006946534620F00700854618B063
:1002B00020B5FFF7DDFFBDE820404FF000064FF00E
:1002C00000074FF000084FF0000BAC46ACE8C00947
:1002D000ACE8C009ACE8C009ACE8C00921F00701EE
:1002E0008D46704710B50446AFF300802046BDE848
:1002F0001040FFF7A8BF000000487047080000202A
:1003000001491820ABBEFEE726000200704700003E
:10031000FEE700007047000040F2000040F2680174
:10032000C2F20000C2F2000100780A6810440860BE
:1003300070470000FEE70000FEE70000FEE7000057
:100340007047000070470000FFF7E6BF4EF6885088
:10035000CEF20000016841F47001016070470000B6
:10036000FEE7000082B043F63001C4F202010A68E1
:1003700040F6004042F00802C4F202000A6002683F
:1003800049F6007122F040520260036846F60022EE
:10039000C0F22401C0F2180243F080534FF0000C69
:1003A000036000BF436943F480434361CDF804C058
:1003B000019B8B4217D2019B01330193019B8B421E
:1003C00011D2019B01330193019B8B420BD2019B04
:1003D00001330193019B8B4205D2019B01330193B1
:1003E000019B8B42E7D3436923F480434361CDF8FB
:1003F00000C0009B9342D5D2009B01330093009B29
:100400009342CFD2009B01330093009B9342C9D209
:10041000009B01330093009B9342C3D2009B0133A6
:100420000093009B9342E7D3BCE7F1EE100A4FF62E
:10043000FF71C0F2C03120EA010040F04070E1EEEF
:10044000100A70476804000800000020080000003F
:10045000EC01000870040008080000206806000095
:100460000C02000800000000010000001000000065
:040000050800018965
:00000001FF
